:020000040800F2
:1000000000040020C1010008912D0008912D000876
:1000100081220008912D0008912D0008912D0008E3
:10002000912D0008912D0008912D0008A14C000889
:10003000912D0008912D0008912D0008E19C0008E9
:10004000912D0008A1770008317900088179000816
:10005000912D0008912D0008E17400083175000809
:1000600081750008D175000821760008216A000812
:10007000716A0008C16A0008116B0008616B000812
:10008000B16B0008016C000851730008217B000867
:10009000917B0008417C0008F17C00087176000823
:1000A000912D0008912D000841970008912D00081E
:1000B000A1980008E198000821990008F18800083B
:1000C000318A0008912D0008912D0008912D00081B
:1000D000912D0008912D0008912D0008A19D000888
:1000E00001770008F177000841780008912D000899
:1000F000912D000881970008912D0008516C00088F
:10010000912D0008817E000861990008912D00085A
:10011000912D0008912D000801970008912D0008ED
:10012000A16C0008F16C0008416D0008916D000899
:10013000E16D0008912D000891780008912D0008CC
:10014000912D0008912D0008912D0008A190000824
:10015000316E0008816E0008D16E0008912D0008F4
:10016000912D0008912D0008912D0008912D000877
:10017000E1780008912D0008D1130008912D0008A6
:10018000912D0008912D0008912D0008912D000857
:10019000912D0008912D0008912D0008912D000847
:1001A000912D0008912D0008912D0008912D000837
:1001B000912D0008912D0008912D0008912D000827
:1001C00072B62E4880F3098840F20000CCF200009D
:1001D0004EF63471CEF20001086040F20000C0F229
:1001E000F0004EF68851CEF2000108604FF000009A
:1001F000E1EE100A4EF63C71CEF2000108600620D6
:1002000080F31488BFF36F8F09F0BAFE4FF05530BA
:100210001B491C4A91423CBF41F8040BFAE71A49BA
:10022000164A91423CBF41F8040BFAE71749184AB5
:10023000184B9A423EBF51F8040B42F8040BF8E702
:1002400000201549154A91423CBF41F8040BFAE7DA
:1002500002F086FD124C134DAC4203DA54F8041B35
:100260008847F9E701F00CF80F4C104DAC4203DA67
:1002700054F8041B8847F9E702F082BD000800200B
:1002800000000020000400200004002008E700080F
:1002900000080020E4110020E81100204048002060
:1002A000C0010008C0010008C0010008C00100082A
:1002B0002DE9F04F2DED108AC1F80CD0D0F80CD0FC
:1002C000BDEC108ABDE8F08F02F0A2FE03F080FEC4
:1002D000002383F311882846A047002003F048FC40
:1002E00003F05EFE02F074FE03F06AFA02F090FE84
:1002F00003F06EFE00DFFEE70000000000000000DB
:1003000081F0004102E000BF83F0004330B54FEAC6
:1003100041044FEA430594EA050F08BF90EA020F33
:100320001FBF54EA000C55EA020C7FEA645C7FEAC6
:10033000655C00F0E2804FEA5454D4EB5555B8BFE9
:100340006D420CDD2C4480EA020281EA030382EA5A
:10035000000083EA010180EA020281EA0303362DEC
:1003600088BF30BD11F0004F4FEA01314FF4801CBF
:100370004CEA113102D0404261EB410113F0004FD1
:100380004FEA03334CEA133302D0524263EB430388
:1003900094EA050F00F0A780A4F10104D5F1200E26
:1003A0000DDB02FA0EFC22FA05F2801841F1000181
:1003B00003FA0EF2801843FA05F359410EE0A5F155
:1003C00020050EF1200E012A03FA0EFC28BF4CF086
:1003D000020C43FA05F3C01851EBE37101F000453C
:1003E00007D54FF0000EDCF1000C7EEB00006EEB49
:1003F0000101B1F5801F1BD3B1F5001F0CD34908D3
:100400005FEA30004FEA3C0C04F101044FEA445229
:1004100012F5800F80F09A80BCF1004F08BF5FEAB0
:10042000500C50F1000041EB045141EA050130BD90
:100430005FEA4C0C404141EB010111F4801FA4F133
:100440000104E9D191F0000F04BF01460020B1FA88
:1004500081F308BF2033A3F10B03B3F120020CDAC0
:100460000C3208DD02F1140CC2F10C0201FA0CF09E
:1004700021FA02F10CE002F11402D8BFC2F1200C03
:1004800001FA02F120FA0CFCDCBF41EA0C019040B9
:10049000E41AA2BF01EB0451294330BD6FEA040402
:1004A0001F3C1CDA0C340EDC04F11404C4F12002ED
:1004B00020FA04F001FA02F340EA030021FA04F3FF
:1004C00045EA030130BDC4F10C04C4F1200220FA56
:1004D00002F001FA04F340EA0300294630BD21FA94
:1004E00004F0294630BD94F0000F83F4801306BF5A
:1004F00081F480110134013D4EE77FEA645C18BF4E
:100500007FEA655C29D094EA050F08BF90EA020FE4
:1005100005D054EA000C04BF1946104630BD91EADC
:10052000030F1EBF0021002030BD5FEA545C05D1DF
:100530004000494128BF41F0004130BD14F580041E
:100540003CBF01F5801130BD01F0004545F0FE4192
:1005500041F470014FF0000030BD7FEA645C1ABFC7
:10056000194610467FEA655C1CBF0B46024650EAFE
:10057000013406BF52EA033591EA030F41F400212A
:1005800030BD00BF90F0000F04BF0021704730B5B0
:100590004FF4806404F132044FF000054FF0000185
:1005A00050E700BF90F0000F04BF0021704730B546
:1005B0004FF4806404F1320410F0004548BF40421B
:1005C0004FF000013EE700BF42004FEAE2014FEA70
:1005D00031014FEA02701FBF12F07F4393F07F4F4B
:1005E00081F06051704732F07F4208BF704793F04E
:1005F0007F4F04BF41F40021704730B54FF4607461
:1006000001F0004521F000411CE700BF50EA010263
:1006100008BF704730B54FF000050AE050EA01020C
:1006200008BF704730B511F0004502D5404261EB7C
:1006300041014FF4806404F132045FEA915C3FF4BD
:10064000D8AE4FF003025FEADC0C18BF03325FEA5A
:10065000DC0C18BF033202EBDC02C2F1200300FA0B
:1006600003FC20FA02F001FA03FE40EA0E0021FA30
:1006700002F11444BDE600BF0000000000000000CD
:1006800070B54FF0FF0C4CF4E06C1CEA11541DBF28
:100690001CEA135594EA0C0F95EA0C0F00F0DEF8F3
:1006A0002C4481EA030621EA4C5123EA4C5350EAD8
:1006B000013518BF52EA033541F4801143F4801329
:1006C00038D0A0FB02CE4FF00005E1FB02E506F0BA
:1006D0000042E0FB03E54FF00006E1FB03569CF00F
:1006E000000F18BF4EF0010EA4F1FF04B6F5007F15
:1006F00064F5407404D25FEA4E0E6D4146EB060687
:1007000042EAC62141EA55514FEAC52040EA5E500F
:100710004FEACE2EB4F1FD0C88BFBCF5E06F1ED8B9
:10072000BEF1004F08BF5FEA500E50F1000041EBF0
:10073000045170BD06F0004646EA010140EA02009D
:1007400081EA0301B4EB5C04C2BFD4EB0C0541EABF
:10075000045170BD41F480114FF0000E013C00F3D4
:10076000AB8014F1360FDEBF002001F0004170BDF8
:10077000C4F10004203C35DA0C341BDC04F1140411
:10078000C4F1200500FA05F320FA04F001FA05F29D
:1007900040EA020001F0004221F0004110EBD3706A
:1007A00021FA04F642EB06015EEA430E08BF20EA96
:1007B000D37070BDC4F10C04C4F1200500FA04F339
:1007C00020FA05F001FA04F240EA020001F00041CB
:1007D00010EBD37041F100015EEA430E08BF20EA3E
:1007E000D37070BDC4F1200500FA05F24EEA020E86
:1007F00020FA04F301FA05F243EA020321FA04F0B5
:1008000001F0004121FA04F220EA020000EBD3706B
:100810005EEA430E08BF20EAD37070BD94F0000F6B
:100820000FD101F00046400041EB010111F4801F9F
:1008300008BF013CF7D041EA060195F0000F18BF50
:10084000704703F00046520043EB030313F4801F8C
:1008500008BF013DF7D043EA0603704794EA0C0F46
:100860000CEA135518BF95EA0C0F0CD050EA41065C
:1008700018BF52EA4306D1D181EA030101F00041D9
:100880004FF0000070BD50EA410606BF1046194601
:1008900052EA430619D094EA0C0F02D150EA01360D
:1008A00013D195EA0C0F05D152EA03361CBF10464E
:1008B00019460AD181EA030101F0004141F0FE41ED
:1008C00041F470014FF0000070BD41F0FE4141F471
:1008D000780170BD70B54FF0FF0C4CF4E06C1CEA71
:1008E00011541DBF1CEA135594EA0C0F95EA0C0F26
:1008F00000F0A7F8A4EB050481EA030E52EA0335E1
:100900004FEA013100F088804FEA03334FF0805501
:1009100045EA131343EA12634FEA022245EA11152E
:1009200045EA10654FEA00260EF000419D4208BFDF
:10093000964244F1FD0404F5407402D25B084FEA8C
:100940003202B61A65EB03055B084FEA32024FF438
:1009500080104FF4002CB6EB020E75EB030E22BF95
:10096000B61A754640EA0C005B084FEA3202B6EB55
:10097000020E75EB030E22BFB61A754640EA5C0004
:100980005B084FEA3202B6EB020E75EB030E22BF94
:10099000B61A754640EA9C005B084FEA3202B6EB95
:1009A000020E75EB030E22BFB61A754640EADC0054
:1009B00055EA060E18D04FEA051545EA16754FEAB6
:1009C00006164FEAC30343EA52734FEAC2025FEAD4
:1009D0001C1CC0D111F4801F0BD141EA00014FF063
:1009E00000004FF0004CB6E711F4801F04BF014334
:1009F0000020B4F1FD0C88BFBCF5E06F3FF6AFAE50
:100A0000B5EB030C04BFB6EB020C5FEA500C50F1DF
:100A1000000041EB045170BD0EF0004E4EEA113162
:100A200014EB5C04C2BFD4EB0C0541EA045170BD69
:100A300041F480114FF0000E013C90E645EA060EAD
:100A40008DE60CEA135594EA0C0F08BF95EA0C0FDB
:100A50003FF43BAF94EA0C0F0AD150EA01347FF423
:100A600034AF95EA0C0F7FF425AF104619462CE7FA
:100A700095EA0C0F06D152EA03353FF4FDAE10465D
:100A8000194622E750EA410618BF52EA43067FF4AE
:100A9000C5AE50EA41047FF40DAF52EA43057FF43E
:100AA000EBAE12E7000000000000000000000000B4
:100AB0004FEA410212F5001215D211D56FF4787386
:100AC000B3EB625212D94FEAC12343F0004343EA29
:100AD000505311F0004F23FA02F018BF4042704704
:100AE0004FF00000704750EA013005D111F000408E
:100AF00008BF6FF0004070474FF00000704700BF24
:100B000053B94AB9002908BF00281CBF4FF0FF3174
:100B10004FF0FF3000F074B9ADF1080C6DE904CE70
:100B200000F006F8DDF804E0DDE9022304B07047C8
:100B30002DE9F047089E04468846002B4BD18A4297
:100B4000154667D9B2FA82F24AB1C2F1200701FA1A
:100B500002F320FA07F7954047EA030894404FEA6A
:100B6000154E230CB8FBFEF71FFA85FC0EFB178809
:100B700043EA084307FB0CF1994209D9EB1807F146
:100B8000FF3080F01B81994240F21881023F2B44D4
:100B90005B1AA4B2B3FBFEF00EFB103344EA03442D
:100BA00000FB0CFCA44509D92C1900F1FF3380F09F
:100BB0000781A44540F2048102382C4440EA0740F2
:100BC000A4EB0C0400271EB1D4400023C6E9004367
:100BD0003946BDE8F0878B4209D9002E00F0EB8042
:100BE0000027C6E9000138463946BDE8F087B3FA68
:100BF00083F7002F47D18B4202D3824200F2FA8062
:100C0000841A61EB030301209846002EE0D0C6E968
:100C10000048DDE702B9FFDEB2FA82F2002A40F0B6
:100C20008F80491B4FEA154E1FFA85F80127B1FB4B
:100C3000FEFC230C0EFB1C1143EA014308FB0CF1E4
:100C4000994207D9EB180CF1FF3002D2994200F219
:100C5000CD808446591AA3B2B1FBFEF00EFB1014EE
:100C600043EA044408FB00F8A04507D92C1900F119
:100C7000FF3302D2A04500F2B6801846A4EB080468
:100C800040EA0C409FE7C7F1200CBB4022FA0CFE63
:100C90004EEA030E01FA07F420FA0CF521FA0CF3E0
:100CA0004FEA1E482543B3FBF8F92C0C08FB193317
:100CB0001FFA8EFA44EA034309FB0AF49C4202FA43
:100CC00007F200FA07F10BD91EEB030309F1FF301D
:100CD00080F087809C4240F28480A9F1020973442D
:100CE0001B1BADB2B3FBF8F008FB103345EA03441D
:100CF00000FB0AFAA24508D91EEB040400F1FF33F9
:100D00006BD2A24569D90238744440EA0940A0FB7D
:100D10000289A4EB0A044C45C2464B4654D351D039
:100D2000002E69D0B1EB0A0564EB030404FA0CFC55
:100D3000FD40FC404CEA0505C6E90054002747E7A2
:100D4000C2F1200320FA03F7954001FA02F021FADC
:100D500003F34FEA154E3843010CB3FBFEF71FFABD
:100D600085F80EFB173341EA034107FB08F38B427A
:100D700004FA02F407D9691807F1FF3C2FD28B421D
:100D80002DD9023F2944CB1A81B2B3FBFEF00EFBF2
:100D9000103341EA034100FB08F38B4207D969187D
:100DA00000F1FF3C17D28B4215D902382944C91AE9
:100DB00040EA07473BE73746304609E70746E7E69C
:100DC0001846FBE64145ABD2B8EB020A69EB0E02CE
:100DD00001381346A4E76046E9E7184695E76746F9
:100DE000D1E781467CE702382C4447E7ACF1020C9E
:100DF0002B442FE7384608E73746E9E600000000B5
:100E0000704700BF0000000000000000000000006C
:100E1000844641EA000313F003036DD1403A41D305
:100E200051F8043B40F8043B51F8043B40F8043BC4
:100E300051F8043B40F8043B51F8043B40F8043BB4
:100E400051F8043B40F8043B51F8043B40F8043BA4
:100E500051F8043B40F8043B51F8043B40F8043B94
:100E600051F8043B40F8043B51F8043B40F8043B84
:100E700051F8043B40F8043B51F8043B40F8043B74
:100E800051F8043B40F8043B51F8043B40F8043B64
:100E900051F8043B40F8043B51F8043B40F8043B54
:100EA000403ABDD2303211D351F8043B40F8043BF4
:100EB00051F8043B40F8043B51F8043B40F8043B34
:100EC00051F8043B40F8043B103AEDD20C3205D304
:100ED00051F8043B40F8043B043AF9D2043208D0FC
:100EE000D2071CBF11F8013B00F8013B01D30B886E
:100EF00003806046704700BF082A13D38B078DD04C
:100F000010F003038AD0C3F10403D21ADB071CBF1D
:100F100011F8013B00F8013B80D331F8023B20F887
:100F2000023B7BE7043AD9D3013A11F8013B00F8C0
:100F3000013BF9D20B7803704B7843708B78837048
:100F40006046704700000000000000000000000044
:100F500090F800F06DE9024520F007016FF0000CF9
:100F600010F0070491F820F040F049804FF00004A1
:100F70006FF00700D1E9002391F840F000F108007C
:100F800082FA4CF2A4FA8CF283FA4CF3A2FA8CF3B4
:100F90004BBBD1E9022382FA4CF200F10800A4FA1B
:100FA0008CF283FA4CF3A2FA8CF3E3B9D1E904236F
:100FB00082FA4CF200F10800A4FA8CF283FA4CF3A6
:100FC000A2FA8CF37BB9D1E9062301F1200182FA60
:100FD0004CF200F10800A4FA8CF283FA4CF3A2FA66
:100FE0008CF3002BC6D0002A04BF04301A4612BA74
:100FF000B2FA82F2FDE8024500EBD2007047D1E977
:10100000002304F00305C4F100004FEAC50514F005
:10101000040F91F840F00CFA05F562EA05021CBFD6
:1010200063EA050362464FF00004A9E700000000F0
:1010300001F0FF01102A2BDB10F0070F08D010F889
:10104000013B013A8B422DD010F0070F42B3F6D18D
:10105000F0B441EA012141EA014122F007047FF0A6
:1010600000070023F0E80256083C85EA010586EAFD
:10107000010685FA47F5A3FA87F586FA47F6A5FA39
:1010800087F68EB9EED1F0BC01F0FF0102F0070245
:1010900032B110F8013B013A83EA010313B1F8D1F0
:1010A0000020704701387047002D06BF35460338D1
:1010B000073815F0010F07D1013015F4807F02BF0A
:1010C000013015F4C03F0130F0BC0138704700BF5B
:1010D0004FF0FF3C06E000BF4FF0010C02E000BF04
:1010E0004FF0010C4DF804CD4FEA410C7FEA6C5CE7
:1010F0004FEA430C18BF7FEA6C5C1BD001B050EA8A
:10110000410C0CBF52EA430C91EA030F02BF90EA74
:10111000020F0020704710F1000F91EA030F58BF33
:10112000994208BF90422CBFD8176FEAE37040F095
:10113000010070474FEA410C7FEA6C5C02D150EA33
:10114000013C07D14FEA430C7FEA6C5CD6D152EAEE
:10115000033CD3D05DF8040B704700BF84461046B3
:1011600062468C461946634600E000BF01B5FFF7B2
:10117000B7FF002848BF10F1000F01BD4DF808ED82
:10118000FFF7F4FF0CBF012000205DF808FB00BF53
:101190004DF808EDFFF7EAFF34BF012000205DF8AD
:1011A00008FB00BF4DF808EDFFF7E0FF94BF0120FA
:1011B00000205DF808FB00BF4DF808EDFFF7CEFFFB
:1011C00094BF012000205DF808FB00BF4DF808ED3A
:1011D000FFF7C4FF34BF012000205DF808FB00BF0B
:1011E0004FEA410C7FEA6C5C02D150EA013C0AD123
:1011F0004FEA430C7FEA6C5C02D152EA033C02D115
:101200004FF0000070474FF00100704700000000F1
:1012100000B5084B83B01A680192019A1B689A4284
:1012200005D1054803B05DF804EB01F031BEFFF7CE
:10123000EFFF00BF0008002050D9000800000000A8
:1012400010B50D4C82B023680193012000F008FF17
:101250004FF4FA7002F0CCFB002000F001FF019A7D
:1012600023689A4206D14FF4FA7002B0BDE81040EC
:1012700002F0BEBBFFF7CCFF00080020000000001A
:101280002DE9F0411C4BDFF874801B6882B000240C
:10129000019303F065FD01F093FD00F099FF01F06B
:1012A000F7F900F0FDFE01F05BFC4FF4967001F0E1
:1012B0008FFA404601F0B4FA01264FF496770AE01F
:1012C000FFF7BEFF01344FF4FA7094FBF5F305FB12
:1012D000134402F08DFB01F0EBFA0546002CEFD130
:1012E0000028EDD007FB06F001F072FA08FB06F0CB
:1012F00001F096FA7642E3E700080020D4FEFFFFF3
:1013000030B5104D81682B680F4A83B001930B688C
:1013100023F001030B608168946A03E0936A1B1B4E
:10132000C72B09D8086810F00100F7D1019A2B6883
:101330009A4204D103B030BD4FF0FF30F6E7FFF71B
:1013400067FF00BF00080020803800200000000078
:1013500070B51C4E82B03368019311F00C0F0D462E
:10136000044610D0C268117A52683D238B40136046
:101370000378032B21D0062263682270DB6813B147
:10138000002120469847AA060BD563685B6873B1B5
:1013900001993268914213D1204602B0BDE87040F5
:1013A0001847EB0603D563689B68002BF0D1019AC0
:1013B00033689A4204D102B070BDFFF7A1FFDAE7AB
:1013C000FFF726FF000800200000000000000000DA
:1013D000F0B5284D83B02B68019302F0A9FD01F010
:1013E00077FE254B1E69F20715D55A69234C42F04A
:1013F00001025A612778BB1F012B2AD90522636895
:1014000022701B680BB120469847042F27D0022F6B
:1014100025D003232370B30710D5174A174C5369FF
:1014200043F0020353612378032B1DD06368DB680C
:101430000622227013B101211048984701F070FE76
:10144000019A2B689A4213D103B0BDE8F04003F033
:1014500047BC019A2B689A420AD103B0F0BD02231F
:101460002370B307EAD5D8E72046FFF749FFDDE749
:10147000FFF7CEFE0008002000000550E811002014
:101480002DE9F0412F4C0578266882B0012D019698
:1014900006D0019A23689A4252D102B0BDE8F08189
:1014A000294DA842F5D10E4690461F46274AE868C6
:1014B0002B460C2105F06CFD002839D1D5E902320C
:1014C000126828339360EB681A68042151611B6825
:1014D000C3F80C80EB681A6817611B68B6085E6079
:1014E0002B694FB343F480232B61E968184A0968DC
:1014F0000B60EB6819680B6843F001030B60536BDA
:1015000043F0010353630B214E2005F021FAD5E986
:101510000113DA6842F00102DA60DA6842F002028E
:10152000DA600A6922F4804222F001021A60B0E710
:10153000084801F0ADFCC1E723F480232B61D4E718
:10154000FFF766FE00080020E81100205113000894
:101550000038024070D900080000000000000000C0
:1015600030B5184C0378226883B0022B019205D065
:10157000019A23689A4223D103B030BD124B98429E
:101580000546F5D18168114A0B6823F4804323F0A6
:1015900001030B608168CB6823F00F03CB60536BB2
:1015A00023F0010353634E2005F0FAF9019A2368F2
:1015B0009A4205D1E86803B0BDE8304005F050BD5F
:1015C000FFF726FE00080020E81100200038024046
:1015D00000B50F4B0278196883B0022A01910ED131
:1015E00081680A6842F002020A6081680A6842F46F
:1015F00080420A6081680A6842F001020A60019A2A
:101600001B689A4202D103B05DF804FBFFF700FEAD
:1016100000080020000000000000000000000000A2
:1016200000B50F4B0278196883B0022A01910ED1E0
:1016300081680A6822F002020A6081680A6842F43E
:1016400080420A6081680A6842F001020A60019AD9
:101650001B689A4202D103B05DF804FBFFF7D8FD86
:101660000008002000000000000000000000000052
:101670002DE9F043254D83B02C680194DDF82890C6
:101680000F4616469846044618B111B1204B9A42AF
:101690002FD9204801F0FCFB202383F3118802F0AE
:1016A0007FFC01F095FC2378012B02D0194801F052
:1016B000EFFB4246314620464B466760FFF7E0FEAF
:1016C0000223237001F0A4FC02F082FC124B1A6882
:1016D0009A4204D0996993688A689A420FD300238A
:1016E00083F31188019A2B689A420CD103B0BDE8AC
:1016F000F0839307CDD1B8F1000FCDD1C9E70748EA
:1017000001F0C6FBEBE7FFF783FD00BF00080020F8
:10171000FCFF0300A0D900088038002090D9000801
:1017200030B51C4D83B02B680193044658B3202379
:1017300083F3118802F034FC01F04AFC2378022B79
:1017400002D0154801F0A4FB2046FFF709FF012352
:10175000237001F05DFC02F03BFC104B1A689A42CA
:1017600004D0996993688A689A4208D3002383F366
:101770001188019A2B689A4209D103B030BD0848FC
:1017800001F086FBF2E7044801F082FBCFE7FFF7A8
:101790003FFD00BF00080020B0D9000880380020BD
:1017A00090D90008000000000000000000000000C8
:1017B00030B51C4D83B02B680193044658B32023E9
:1017C00083F3118802F0ECFB01F002FC2378022B7A
:1017D00002D0154801F05CFB2046FFF7F9FE042318
:1017E000237001F015FC02F0F3FB104B1A689A42CB
:1017F00004D0996993688A689A4208D3002383F3D6
:101800001188019A2B689A4209D103B030BD08486B
:1018100001F03EFBF2E7044801F03AFBCFE7FFF7A7
:10182000F7FC00BF00080020C0D900088038002065
:1018300090D9000800000000000000000000000037
:1018400030B51C4D83B02B680193044658B3202358
:1018500083F3118802F0A4FB01F0BAFB2378022B7A
:1018600002D0154801F014FB2046FFF7D9FE0323F0
:10187000237001F0CDFB02F0ABFB104B1A689A42CB
:1018800004D0996993688A689A4208D3002383F345
:101890001188019A2B689A4209D103B030BD0848DB
:1018A00001F0F6FAF2E7044801F0F2FACFE7FFF7A9
:1018B000AFFC00BF00080020E0D9000880380020FD
:1018C00090D90008000000000000000000000000A7
:1018D00030B51A4D83B02B680193044638B32023EA
:1018E00083F3118802F05CFB01F072FB02232046B7
:1018F0002370FFF735FE0123237001F089FB02F00E
:1019000067FB0F4B1A689A4204D0996993688A68FA
:101910009A4208D3002383F31188019A2B689A42D4
:1019200009D103B030BD074801F0B2FAF2E706482A
:1019300001F0AEFAD3E7FFF76BFC00BF0008002010
:101940008038002090D90008F0D90008000000007D
:1019500000B5074B07491A68087083B00192019AD5
:101960001B689A4202D103B05DF804FBFFF750FCFC
:1019700000080020FC110020000000000000000012
:1019800000B5174B174A93F90030116883B00191E5
:1019900001995BB1012B18D0022B13680ED099422C
:1019A0004FF0000019D103B05DF804FB13689942B1
:1019B00013D103B05DF804EB00F0DABA99420CD110
:1019C00003B05DF804EB00F093BA1368994204D1B8
:1019D00003B05DF804EB00F0ABBAFFF719FC00BFF1
:1019E00004080020000800200000000000000000A3
:1019F00010B51B4B1B4C93F90030226882B001924A
:101A0000B3B1012B21D0022B06D00020019A23680C
:101A10009A4223D102B010BD134B1B788BB1019AAF
:101A200023689A421AD102B0BDE8104000F060BAB3
:101A3000019A23689A4211D102B0BDE8104000F02B
:101A400097BA00F055FA4000E0E7019A23689A42FD
:101A500004D102B0BDE8104000F06ABAFFF7D8FB2D
:101A600004080020000800200508002000000000F5
:101A7000F0B5124F83B03B68019300F051F9104B61
:101A800093F90030022B064606D0019A3B689A4231
:101A9000304610D103B0F0BD0A4B1C7824B1F4E7F6
:101AA000735D33550134A4B2FFF7A2FF6500ADB2F8
:101AB0008542F5D3E9E7FFF7ABFB00BF0008002044
:101AC00004080020050800200000000000000000BD
:101AD00000B5084B08491A6883B000200192019AAA
:101AE0001B6808709A4202D103B05DF804FBFFF74F
:101AF0008FFB00BF00080020031200200000000040
:101B000010B5104C82B023680193202383F3118811
:101B100002F076FA01F09CFA0B4B0C4801221A7085
:101B200002F0BEFC01F0B4FA02F082FA002383F363
:101B30001188019A23689A4201D102B010BDFFF7C3
:101B400067FB00BF000800200C12002008080020DE
:101B500010B50F4C0F4B2268197082B020230192F0
:101B600083F3118802F04CFA01F072FA0A4802F08D
:101B700097FC01F08DFA02F05BFA002383F31188E1
:101B8000019A23689A4201D102B010BDFFF740FBD1
:101B900000080020001200200808002000000000BB
:101BA00000B51F4A1F4B127818681F4983B0019077
:101BB00001208242087006D0019A1B689A422CD1FB
:101BC00003B05DF804FB1949194A0978D2688142CB
:101BD000126811D017481849007809680128106860
:101BE00006D000030ED51069884212D0D160E3E719
:101BF0000003FBD41161DFE7106810490003096896
:101C0000F8D5F3E7D0688842F4D10C49096811612E
:101C1000D2E70A490968D160CEE7FFF7F9FA00BFB9
:101C2000021200200008002003120020FD110020F5
:101C3000E8110020FE1100200412002008120020EC
:101C400030B51B4D1B4C2B78226885B0012B0392BD
:101C500025D0FFF7CDFE184B1B78024653B9B0F5DF
:101C6000164F20D8154900930B6815481549FFF702
:101C7000FFFC0BE0B0F5964F15D813490F4B0968E0
:101C80001B680F4800910F49FFF7F2FC01232B70EE
:101C90000020039A23689A4208D105B030BD084855
:101CA000FFF73EFDD5E74FF0FF30F2E7FFF7B0FA60
:101CB000011200200008002002120020041200205F
:101CC000E811002000DA00080812002000000000DF
:101CD00010B50F4C0F48236882B0019302F0A8FAA8
:101CE0000D4802F04DFC0D4B0A481B7843B102F041
:101CF000D7FA0020019A23689A4206D102B010BD9B
:101D000002F0CEFA4FF0FF30F4E7FFF781FA00BFA0
:101D10000008002010080020080800200C120020F5
:101D200070B5294B294C1878294D236882B001934E
:101D30002B7858B9012B03D0264A012310682B7049
:101D4000019A23689A423DD102B070BD012B37D071
:101D5000214E3378012B33D0204B1B78FBB9204B1D
:101D60001C4ADB6811681B681A68100307D5DA681B
:101D70008A424FF0010221D03270D868E0E71A6938
:101D80008A424FF0010208D032701869D8E71A6908
:101D9000096891424FF00102F6D12A70F5E7FFF78A
:101DA00097FF0F4B0B49DB681B681A681203EED5CF
:101DB000DA68096891424FF00102DDD12A70DCE750
:101DC0000020BDE7FFF724FA0212002000080020DF
:101DD000FD11002004120020FE110020031200203B
:101DE000E8110020000000000000000000000000DA
:101DF00010B5084B084C1A68084882B00192019946
:101E00001A68002391422370037001D102B010BD03
:101E1000FFF7FEF900080020FD110020FE11002050
:101E200010B5174A174B1278196882B00191F2B1B8
:101E3000154A1648164C1178002202702270154877
:101E400051B101991B680270994216D1124802B033
:101E5000BDE81040FFF7F4BC019A1B6801709A427C
:101E60000BD10D4802B0BDE81040FFF7A1BC019AAC
:101E70001B689A4201D102B010BDFFF7C9F900BF3B
:101E80000112002000080020FF110020FE11002098
:101E9000FD1100200C120020E811002000000000BD
:101EA00010B50D4B0D4C1A78216882B0012A0191B2
:101EB00008D0019A23689A420CD102B0BDE81040C4
:101EC000FFF7BEBE0649074800220A701A70FFF7E6
:101ED000FFFCEEE7FFF79CF901120020000800204C
:101EE00000120020E81100200000000000000000A7
:101EF00010B50A4B0A4A1988146858881B7982B0B1
:101F0000022B019400FB01F00199136818BF4000F7
:101F1000994201D102B010BDFFF77AF910120020EA
:101F20000008002000000000000000000000000089
:101F300010B50A4B0A4A1988146858881B7982B070
:101F40000D2B019400FB01F00199136818BF4000AC
:101F5000994201D102B010BDFFF75AF918120020C2
:101F60000008002000000000000000000000000049
:101F700010B50A4B0A4A1988146858881B7982B030
:101F8000442B019400FB01F00199136818BF400035
:101F9000994201D102B010BDFFF73AF9201200209A
:101FA0000008002000000000000000000000000009
:101FB00070B5294D82B02B6801930E46032841D895
:101FC000DFE800F01A120A02012922D9234A5369D4
:101FD00083F40063536116E0012926D91F4A53692F
:101FE00083F4806353610EE0012918D91B4A5369B9
:101FF00083F04003536106E001291CD9174A536955
:1020000083F020035361019A2B689A4218D102B0E1
:1020100070BD124B4FF4006229B15A83F3E70F4BA6
:1020200040220029F9D11A83EDE70C4B4FF480626E
:102030000029F8D0F1E7094B20220029F3D0ECE782
:10204000FFF7E6F80024E0B231460134FFF7B0FFB5
:10205000042CF8D1D7E700BF00080020000C024094
:1020600000B50D4B83B01A68019201280BD90B49BA
:102070004A6982F004024A61019A1B689A4209D1B6
:1020800003B05DF804FB054A042108B95183F3E766
:102090001183F1E7FFF7BCF80008002000040240BC
:1020A000F0B5104F104C3B6883B0002501932E46CD
:1020B0000021E8B2FFF77CFF00F092FD68B1013526
:1020C000042D26706670A67004F10304F0D1019A05
:1020D0003B689A4204D103B0F0BD00F069FDEEE721
:1020E000FFF796F8000800202812002000000000EA
:1020F00030B5094B094D044607CB83B02B680193DB
:10210000206001982B6861609842A26001D103B001
:1021100030BDFFF77DF800BF281200200008002026
:102120002DE9F043254E83B034680194042A9DF8CC
:102130002890144605460F46984639D9B9F1000F44
:1021400014BF00224FF08052640002EB0863013C90
:102150001C4405F00F0527F01F07202383F3118887
:1021600001F01EFF3D4300F033FF154B1035DD60DD
:102170001C6100F04DFF01F02BFF124B1A689A42D0
:1021800004D0996993688A689A420DD3002383F337
:102190001188BFF36F8FBFF34F8F019A33689A4254
:1021A0000AD103B0BDE8F083074800F071FEEDE707
:1021B000064800F06DFEC1E7FFF72AF8000800208E
:1021C00090ED00E080380020A0DA000880DA0008F6
:1021D00030B5224D224C2B68224A85B003936368A8
:1021E00043F004036360536A43F480335362202353
:1021F00083F3118801F0D4FE00F0EAFE17221A4B97
:10220000E260236100F004FF01F0E2FE174B1A6860
:102210009A4204D0996993688A689A4218D3002038
:1022200080F31188BFF36F8FBFF34F8F03231D22FD
:1022300000904FF00051FFF773FF094A536843F0D5
:1022400001035360039A2B689A4205D105B030BD53
:10225000074800F01DFEE2E7FEF7DAFF0008002065
:1022600090ED00E000ED00E0090000108038002053
:10227000A0DA0008000000000000000000000000DC
:1022800070B51A4D1A4C1B4E0FCD0FC49EB02A6864
:10229000336822801D93EFF30981682203A8FEF7BB
:1022A000B7FD154B9D6AAA0714D4EB0708D5124B4E
:1022B00008995B6B114A00910D48802108F0C8F91C
:1022C0001D9A33689A420FD109481EB0BDE870408C
:1022D00000F0DEBD099A5B6B0092A4F11000084A81
:1022E000802108F0B5F9E0E7FEF792FF64DA000814
:1022F000341200200008002000ED00E040DA000861
:1023000020DA0008000000000000000000000000CB
:1023100000B51F4B0278196883B00191E2B11D4AE4
:102320004FF4005111834278EAB11A4A4FF48051B8
:1023300011838278F2B1174A4FF480411183C27839
:10234000FAB9144A4FF400415183019A1B689A422A
:102350001CD103B05DF804FB0E4A4FF400515183C9
:102360004278002AE1D10B4A4FF4805151838278A0
:10237000002AE0D1074A4FF480415183C278002AF5
:10238000DFD0044A4FF400411183DEE7FEF740FF3F
:1023900000080020001002400000000000000000C3
:1023A00000B51F4B0278196883B00191E2B11D4A54
:1023B0004FF4007111834278EAB11A4A4FF48071E8
:1023C00011838278F2B1174A4FF400611183C27809
:1023D000FAB9144A4FF480615183019A1B689A42FA
:1023E0001CD103B05DF804FB0E4A4FF40071518319
:1023F0004278002AE1D10B4A4FF4807151838278F0
:10240000002AE0D1074A4FF400615183C278002AC4
:10241000DFD0044A4FF480611183DEE7FEF7F8FE57
:102420000008002000100240000000000000000032
:1024300030B50C4A0C4B116883B04FF40055019134
:102440004FF480544FF400414FF480405D835C832F
:102450005883598301991368994201D103B030BD63
:10246000FEF7D6FE00080020001002400000000029
:1024700030B50C4A0C4B116883B04FF400750191D4
:102480004FF480744FF480614FF400605D835C838F
:102490005883598301991368994201D103B030BD23
:1024A000FEF7B6FE00080020001002400000000009
:1024B00010B50B4C0B48236882B099220021019380
:1024C00002F066FF019A23689A4206D1054800216E
:1024D00002B0BDE8104003F043B8FEF799FE00BF1C
:1024E00000080020604600200000000000000000FE
:1024F00010B50B4C0B48236882B099220021019340
:1025000002F046FF019A23689A4206D1054800214D
:1025100002B0BDE8104003F023B8FEF779FE00BF1B
:10252000000800207C4600200000000000000000A1
:1025300000B5084B83B01A680192019A1B689A4251
:1025400006D10548002103B05DF804EB02F070BF2E
:10255000FEF75EFE0008002060460020000000003C
:1025600000B5084B83B01A680192019A1B689A4221
:1025700006D10548002103B05DF804EB02F058BF16
:10258000FEF746FE000800207C4600200000000008
:1025900070B51A4C1A4E2378326882B0022B019221
:1025A000A26811D165781748013505F0070500EBE1
:1025B0008500904763686570013B6360019A3368EA
:1025C0009A4219D102B070BD012B08D0019933682D
:1025D000994211D10C4802B0BDE8704010476578AF
:1025E0000848013D05F0070500EB8500904763684A
:1025F000657001336360E1E7FEF70AFED012002048
:102600000008002040DB000830DB0008000000006C
:1026100070B51A4C1A4E2378326882B0012B0192A1
:10262000A26811D165781748013505F0070500EB60
:10263000850090476368657001336360019A336871
:102640009A4219D102B070BD022B08D001993368AB
:10265000994211D10C4802B0BDE87040104765782E
:102660000848013D05F0070500EB850090476368C9
:102670006570013B6360E1E7FEF7CAFDB41200201C
:102680000008002040DB000830DB000800000000EC
:1026900070B51D4E1D4A1E4B30681E491E4C916080
:1026A00082B00021D46001901C4C1D481D4D9D60DE
:1026B000117051705160106154611B481B4A1C4DD0
:1026C000D8601C48197059705960C3E90425FFF798
:1026D0001FFE1848FFF764FE1749204602F0C0FDB0
:1026E000204602F0F5FE2846144902F0B9FD019A91
:1026F00033689A4205D1284602B0BDE8704002F026
:10270000E7BEFEF785FD00BF00080020D0120020C4
:10271000B412002011230008B124000860460020F4
:1027200031250008A1230008F124000861250008D4
:102730007C46002030DB0008F0DA0008B0DA000840
:1027400030B5204D85B02B68039340F24C4399423D
:10275000044628DCA3F69803994212DB4B00002BB9
:1027600081612BD10370036998474FF47A71039A02
:102770002B689A4220D1606905B0BDE8304002F074
:10278000BFBD8361104B02225B42227040F289225E
:1027900093420E4991FBF3F189B208DC0191E368A1
:1027A00098470199E3E70122836102702D2101918D
:1027B000236998470199DAE7FEF72AFDE3DD012254
:1027C0000270E3E70008002068F7FFFFA086010021
:1027D00030B50E4C83B023680193054600F078FABB
:1027E000019A236840B99A420ED10948294603B09C
:1027F000BDE83040FFF7A4BF9A4205D1284603B098
:10280000BDE8304000F07CBAFEF702FD0008002071
:10281000B4120020000000000000000000000000D2
:1028200030B50E4C83B023680193054600F050FA92
:10283000019A236840B99A420ED10948294603B04B
:10284000BDE83040FFF77CBF9A4205D1284603B06F
:10285000BDE8304000F06CBAFEF7DAFC000800205A
:10286000D012002000000000000000000000000066
:102870000A490B4B09680B4A82B020200191402184
:1028800058834FF4806559834FF400644FF48040BF
:1028900004215D835C8358835183FEE70008002098
:1028A000000C024000040240000000000000000094
:1028B00030B5104C104B2268104983B00192186952
:1028C0001A6909691B69019D2468C2F3C032C1F30A
:1028D000001102EB4102C3F38033C0F3403003EB3D
:1028E0004203A54200EB430001D103B030BDFEF727
:1028F0008FFC00BF0008002000080240000C0240CE
:102900002DE9F04F884C894AA36989491268996179
:1029100085B0002332200392029301F069F8DFF8BA
:102920003082DFF830A2DFF81C92DFF80CB22025ED
:1029300085F3118801F034FB00F04AFBA66A00F031
:1029400067FB01F045FB2368A34207D0A2699B689F
:1029500092689A4202D2774800F09AFA002383F3F1
:10296000118885F3118801F01BFB00F031FB98F80A
:102970000030012B00F0A38000F04AFB01F028FB9F
:102980002368A34207D0A2699B6892689A4202D248
:10299000684800F07DFA002383F311889AF800302C
:1029A000012B06D1FFF73CFAFFF792F9002840F01F
:1029B0008A8040F6FC72FF215F4807F0F9FD5F4B0B
:1029C0001B78012B77D04FF06533C9E90033C9F884
:1029D00008305B4803F06CFB574B5A4A58480C21AF
:1029E00003F0E6FB564803F0A3FB00230293029B8F
:1029F00042F20F72934206D800BF029B013302934A
:102A0000029B9342F8D99BF80000FEF7A1FF9AF8C9
:102A10000030012B49D19BF80130B72B88D1FEF74C
:102A2000AFFF494E8308A6FB0323C3F3CF170097DC
:102A3000FEF7A6FF8308A6FB0323DB09C3EB832372
:102A4000A0EB83030193FFF713F8404B18603FB3EB
:102A500000273E463A4803F02BFB3C4B38481A68A7
:102A6000354B3A4440F6FC7103F0A2FB344803F0C6
:102A70005FFB00230293062E029B48D943F6972260
:102A8000934206D800BF029B01330293029B9342FC
:102A9000F8D90136009AB3B29A4207F6FC77D9D832
:102AA000019B9BB9FFF7A4F942E706F132013046DA
:102AB00000F0DEFF3CE72348FFF71AFB89E703201D
:102AC00000F01EFD58E7FFF7EBF931E71C4803F073
:102AD000EFFA1E4B009A1E681948174B0199C2EB7A
:102AE000822206EB820203F063FB154803F020FB11
:102AF00000230293029B43F697229342D2D800BF51
:102B0000029B01330293029B9342F8D9CAE741F238
:102B100087329342BDD800BF029B01330293029BD0
:102B20009342F8D9B5E700BF8038002000080020A4
:102B300080DB000860DB0008F8120020F41200209F
:102B4000DC4500207828002001020820F012002037
:102B5000F4220020EC120020000000000000000021
:102B600010B50D4C0D4923680D4884B0039303F054
:102B700057FA0023009340220A4B0B484FF4AF61F1
:102B800000F0DEFE039A236808499A42086001D1EA
:102B900004B010BDFEF73CFB0008002070DB00080D
:102BA000DC4500200129000800230020F822002035
:102BB00000B5084B08491A6883B001200192019AB8
:102BC0001B6808709A4202D103B05DF804FBFEF75F
:102BD0001FFB00BF00080020F412002000000000CE
:102BE00000B5074B07491A68087883B00192019A2B
:102BF0001B689A4202D103B05DF804FBFEF708FBA4
:102C000000080020F4120020000000000000000076
:102C100000B5084B83B01A680192019A1B689A426A
:102C200005D1054803B05DF804EB01F001BBFEF7E8
:102C3000EFFA00BF00080020240800200000000078
:102C400000B5084B83B01A680192019A1B689A423A
:102C500005D1054803B05DF804EB01F021BBFEF798
:102C6000D7FA00BF00080020240800200000000060
:102C700070B50D4C82B0236801930D1E06460DDD24
:102C8000284601F0A5FF18B90C2333604FF0FF3040
:102C9000019A23689A4205D102B070BD034800F042
:102CA000F7F8EDE7FEF7B4FA0008002090DB000823
:102CB00000B5064B83B01A680192019A1B689A42CC
:102CC00002D103B05DF804FBFEF7A2FA0008002071
:102CD00000B5074B07491A68087883B00192019A3A
:102CE0001B689A4202D103B05DF804FBFEF790FA2C
:102CF00000080020743800200000000000000000E0
:102D000000B5074B07491A68086083B00192019A21
:102D10001B689A4202D103B05DF804FBFEF778FA13
:102D200000080020783800200000000000000000AB
:102D300000B5074B07491A68086083B00192019AF1
:102D40001B689A4202D103B05DF804FBFEF760FAFB
:102D5000000800207C380020000000000000000077
:102D600000B5064B83B01A680192019A1B689A421B
:102D700002D103B05DF804FBFEF74AFA0008002018
:102D8000024B82B01B680193FEE700BF00080020E1
:102D900000B5044B04481B6883B0019300F078F839
:102DA000FEE700BF00080020A0DB000800000000D4
:102DB000024B82B01B680193FEE700BF00080020B1
:102DC000F0B5294E294B3268294885B0002403927A
:102DD0009C60D968274A4FF6FF0529400A43DA600C
:102DE000C2682549254D42F08072C2600A6842F0EF
:102DF00001020A6010202022D87783F8222000F0F8
:102E0000DFFA00F045FA01F01BF801F0B9FE01F01D
:102E100027FF01F06DF800F0FBF9402105F588600F
:102E200000F0F6FC0127164BC36180F82070A86102
:102E300000F0A6F884F3118862B6AB69114A9A6172
:102E40004FF4C4713A46104B009405F59D6000F0B4
:102E500077FD039A33680D4981619A4201D105B02B
:102E6000F0BDFEF7D5F900BF0008002000ED00E03E
:102E7000F0ED00E00003FA05001000E080380020CB
:102E80000004002020DD0008B12D0008C0DB000890
:102E900000B5054B83B01B680193044672B6FFF77B
:102EA000E7FC024BDC62FEE70008002080380020CF
:102EB0002DE9F047DFF890A0224DDAF8003082B01B
:102EC000019300F055F9AB6993F8232012B1013A50
:102ED00083F823205A6ADFF8748001325A6200F0C6
:102EE00047F9AB6AEA6901334245AB6220D0936887
:102EF000013B9360EC69A668D6B94FF020092368BE
:102F0000E768E660C3F804802368EB6100F0C0F86E
:102F100001F08EF886F311882069B84789F311888B
:102F200001F06EF800F094F8EC69A368002BE6D08D
:102F3000019ADAF800309A4202D102B0BDE8F08777
:102F4000FEF766F980380020000800209C38002039
:102F500010B5094C094A236882B00193516853683F
:102F60005B1A9842FBD8019A23689A4201D102B0B9
:102F700010BDFEF74DF900BF00080020001000E072
:102F800000B50E4A0E4B116B186883B0019009B959
:102F9000526B4AB1019A1B689A420CD1094803B09E
:102FA0005DF804EBFFF774BF019A1B689A4202D1E7
:102FB00003B05DF804FBFEF72BF900BF803800205A
:102FC00000080020D0DB0008000000000000000026
:102FD00030B50B4C0B4D236B2A6883B001920BB9B3
:102FE000636B13B10848FFF753FF019A2B68012167
:102FF0009A42616301D103B030BDFEF709F900BF09
:10300000803800200008002000DC000800000000DC
:1030100030B50C4C0C4D236B2A6883B0019253B928
:10302000636B002B07DD019A2B6800219A426163D4
:1030300005D103B030BD0548FFF72AFFF3E7FEF7DF
:10304000E7F800BF803800200008002020DC0008DE
:1030500030B50B4C0B4D236B2A6883B0002B0192CB
:1030600001DD636B13B10848FFF712FF019A2B686B
:1030700001219A42616301D103B030BDFEF7C8F867
:10308000803800200008002010DC0008000000004C
:1030900030B50C4C0C4D236B2A6883B0002B019289
:1030A0000ADD636B002B07DD019A2B6800219A4231
:1030B000616305D103B030BD0448FFF7E9FEF3E7D3
:1030C000FEF7A6F8803800200008002030DC000859
:1030D00030B50F4D83B02B680193202383F3118803
:1030E0000C4C236B002B01DB626B1AB10A48FFF713
:1030F000CFFE236B01332363002383F31188019AEE
:103100002B689A4201D103B030BDFEF781F800BFB1
:103110000008002080380020E0DB000800000000EC
:1031200030B50F4D83B02B680193202383F31188B2
:103130000C4C236B002B01DD626B1AB10A48FFF7C0
:10314000A7FE236B013B2363002383F31188019ABD
:103150002B689A4201D103B030BDFEF759F800BF89
:103160000008002080380020F0DB0008000000008C
:1031700000B50F4A0F4B116B186883B000290190FE
:1031800009DB526B002A06DD019A1B689A420CD1BA
:1031900003B05DF804FB019A1B689A4205D106480A
:1031A00003B05DF804EBFFF773BEFEF731F800BF24
:1031B000803800200008002040DC000800000000EB
:1031C00000B50E4A0E4B116B186883B0019049B9D7
:1031D000526B002A06DD019A1B689A420CD103B09B
:1031E0005DF804FB019A1B689A4205D1054803B0BB
:1031F0005DF804EBFFF74CBEFEF70AF880380020BC
:103200000008002050DC0008000000000000000062
:1032100010B5084A084B116882B040240191019909
:10322000126818199142C3E90E4001D102B010BDD5
:10323000FDF7EEFF000800208038002000000000AD
:1032400010B51149114B0A6882B00192DA6B9C6A81
:103250001460DA6B9C695460DA6B846A9460DA6B90
:1032600090F820001073DA6B03F588601032824208
:1032700028BF03F14002DA63019A0B689A4201D138
:1032800002B010BDFDF7C4FF000800208038002008
:1032900010B50B4A0B4B116882B04FF0FF3401910F
:1032A00000219962019811685C6203F11C02884256
:1032B000C3E9072201D102B010BDFDF7A9FF00BF8D
:1032C00000080020803800200000000000000000FE
:1032D0002DE9F041184E82B00546306801900C4649
:1032E00017469846FFF744FF05B3FFB1F4B1C5E9AF
:1032F00003781248C3699A68944204D91B68A41AD7
:103300009A68A242FAD32B605A686A6015605D60C1
:10331000AC609968019D3268091B95424FF0FF34FB
:103320009960446206D102B0BDE8F0810448FFF71D
:10333000AFFDDCE7FDF76CFF0008002080380020BF
:1033400060DC000800000000000000000000000039
:1033500030B5164D83B004462B680193FFF708FF84
:10336000ECB1E368BBB12268A0689368019903449B
:103370009360D4E900231A6020682B680C4A6568C2
:10338000456099424FF000054FF0FF30E560506214
:1033900009D103B030BD0748FFF77AFDE3E70548E0
:1033A000FFF776FDDDE7FDF733FF00BF00080020E3
:1033B0008038002070DC00080000000000000000E1
:1033C00000B50A4A0A4B11681B6083B000200191C6
:1033D000019912685B609142C3E90433986002D19D
:1033E00003B05DF804FBFDF713FF00BF00080020E9
:1033F00080380020000000000000000000000000F5
:1034000030B5164D83B004462B680193FFF7B0FE2C
:10341000ECB194F82030B3B10F2B14D00022A16886
:103420000F4B84F820201B689A688A42FBD22360E5
:103430005A686260146001992A685C609142204673
:1034400009D103B030BD0748FFF722FDE6E7054884
:10345000FFF71EFDDDE7FDF7DBFE00BF00080020E3
:103460008038002080DC0008000000000000000020
:1034700070B5204D82B02B6801930446202383F35E
:10348000118800F0BDFDFFF7E3FD94F82030072B15
:1034900011D8DFE803F0161010230A04100AA66AF8
:1034A000FFF766FEB3680133B360D4E900231A6006
:1034B000D4E900325A604FF0FF33A3622046FFF791
:1034C0009FFFFFF7E5FD00F0B3FD002383F31188B4
:1034D000019A2B689A420BD102B070BDA36A0022F8
:1034E0001A604FF0FF33A3622046FFF789FFE8E739
:1034F000FDF78EFE00080020000000000000000024
:10350000F0B5194E194C336883B007460193FFF7A5
:1035100057FEA569236885F82070142285F82320BA
:103520001A68226001215460284683F82010A361A4
:10353000FFF786FE2946A06900F012FDEFF309832C
:10354000EA69643B9A4202D90948FFF7A1FC019A53
:1035500033689A4206D1A069294603B0BDE8F0401D
:10356000FCF7A6BEFDF754FE0008002080380020BE
:1035700090DC0008000000000000000000000000D7
:10358000F0B5154C87B0236805930E460746FFF744
:1035900017FE731C18D0114D114AAB6931466846AD
:1035A000FFF796FE3846FFF7ABFFFFF7E1FD039B01
:1035B00013B16846FFF7CCFE059A2368A9699A42C1
:1035C000886A06D107B0F0BD3846FFF799FF034D72
:1035D000F2E7FDF71DFE00BF000800208038002044
:1035E000713400080000000000000000000000002E
:1035F000F0B51E4D1E4E2B6883B0044601930F4656
:10360000FFF7DEFDB069A7628368A2689A421DD900
:10361000FFF7F6FE0123074684F82030B461FFF778
:103620000FFE3946204600F09BFCEFF30983FA6950
:10363000643B9A4214D8019A2B689A4214D13946B5
:10364000204603B0BDE8F040FCF732BE019A2B687B
:103650009A4209D1204603B0BDE8F040FFF7D0BE42
:103660000448FFF715FCE6E7FDF7D2FD000800204F
:103670008038002090DC00080000000000000000FE
:1036800010B50E490E4B8A69086892F823101C6821
:103690008068926882B0019449B9904234BF00209A
:1036A0000120019A1B689A4206D102B010BD9042D7
:1036B00094BF00200120F4E7FDF7AAFD8038002028
:1036C00000080020000000000000000000000000D2
:1036D00070B5184C184E2368A5691A6822605460AA
:1036E000012283F8202082B01422316885F823203B
:1036F0002846A3610191FFF783FE2846FFF7A0FD4E
:103700002946A06900F02CFCEFF30983EA69643BC9
:103710009A4202D90948FFF7BBFB019A33689A42E3
:1037200006D1A069294602B0BDE87040FCF7C0BDD3
:10373000FDF76EFD803800200008002090DC0008B6
:1037400070B51C4D1C4E2A68AC6913682B600121B2
:1037500082B05D60002082F82010AA613268A16802
:1037600084F82000019200E01B689A688A42FBD826
:1037700023605A686260204614605C60FFF760FD59
:103780002146A86900F0ECFBEFF30983E269643B92
:103790009A4202D90948FFF77BFB019A33689A42A3
:1037A00006D1A869214602B0BDE87040FCF780BD93
:1037B000FDF72EFD803800200008002090DC000876
:1037C00000B50E4A0E4B9269196892F8232083B017
:1037D000019142B1019A1B689A420DD103B05DF884
:1037E00004EBFFF7ADBF019A1B689A4204D103B006
:1037F0005DF804EBFFF76CBFFDF70AFD8038002091
:103800000008002000000000000000000000000090
:10381000F0B51A4A1A4D02610446816083B0142340
:1038200050692E68616484F8233002270023012147
:10383000278484F82210C4E90F3304F16801A361DE
:10384000019604F12C07636204F1500604F1300381
:1038500060610461C4E90C33E1613046E7625461A0
:1038600000F086FA304600F0A3FA019A2B689A42DB
:1038700002D1204603B0F0BDFDF7CAFC803800201D
:103880000008002000000000000000000000000010
:1038900010B5094B82B01C680194884203D200F82D
:1038A000012B8142FBD1019A1B689A4201D102B0DF
:1038B00010BDFDF7ADFC00BF0008002000000000B7
:1038C0002DE9F043184E83B0346801940546DDF8C5
:1038D00028900C4617469846FFF74AFC15B1B4F5F8
:1038E000BC7F19D21148FFF7D3FAA4F1640129442F
:1038F000E960C1F84080EB68019AC3F844903368EE
:10390000E9680B4808669A420CD13946284603B04C
:10391000BDE8F043FFF77CBF7F2FE3D8B8F1000F7D
:10392000E3D1DFE7FDF774FC00080020E0DC0008CD
:10393000C9020008000000000000000000000000B4
:103940002DE9F04FDFF8A48087B0D8F80040DDF80B
:103950004090059407468A46934600F1680604465F
:10396000FF2504F8015BA642FBD107EB0A05A5423F
:1039700004D9552604F8016BA542FBD103932022FC
:1039800082F3118800F00CFBFFF722FB039BCDF8BC
:1039900000905A4651463846FFF792FF00210446F0
:1039A000FFF726FEFFF734FB00F012FB0D4B1A6801
:1039B0009A4204D0996993688A689A420BD300238B
:1039C00083F31188059AD8F800309A42204606D130
:1039D00007B0BDE8F08F0448FFF75AFAEFE7FDF7AC
:1039E00017FC00BF80380020A0DC00080008002081
:1039F00030B5184C83B0236801930546202383F328
:103A0000118800F0CDFAFFF7E3FA15B91248FFF775
:103A10003FFA29460820FFF7B3FDFFF7F9FA00F057
:103A2000D7FA0E4B1A689A4204D0996993688A684B
:103A30009A4208D3002383F31188019A23689A429B
:103A400005D103B030BD0648FFF722FAF2E7FDF7D3
:103A5000DFFB00BF00080020B0DC00088038002039
:103A6000A0DC0008000000000000000000000000D2
:103A7000F0B51C4F83B03B68019304460E462023EB
:103A800083F31188184D00F08BFAFFF7A1FAA96AA9
:103A9000331B0C1B9C4219D3FFF7BAFA00F098FABB
:103AA0002B68AB4204D0AA699B6892689A4209D3FA
:103AB000002383F31188019A3B689A4230460FD164
:103AC00003B0F0BD0948FFF7E3F9F1E7741A02D13A
:103AD0000748FFF7DDF921460820FFF751FDDBE736
:103AE000FDF796FB0008002080380020A0DC0008CD
:103AF000B0DC000800000000000000000000000032
:103B000070B5164B164E9C693268E36AA06282B0AB
:103B100004F12C05AB42019207D01A68E262184604
:103B2000FFF76EFCE36AAB42F7D194F821309B07B4
:103B300005D1D4E904231A61D4E904325A610F2073
:103B4000FFF7DEFC019A33689A4205D1054802B0BE
:103B5000BDE87040FFF79CB9FDF75AFB80380020A4
:103B600000080020F0DC0008000000000000000059
:103B700030B50C4C83B0236801930546202383F3B2
:103B8000118800F00DFAFFF723FA019A23689A4290
:103B900005D1284603B0BDE83040FFF7B1BFFDF7BF
:103BA00037FB00BF000800200000000000000000FC
:103BB000F0B50D4D0D4E03682A68B76983B0044611
:103BC000019213B10A48FFF763F927600320BC6232
:103BD000FFF796FC019A2B68B1699A42886A01D175
:103BE00003B0F0BDFDF714FB000800208038002072
:103BF00000DD0008000000000000000000000000E0
:103C0000F0B5124D04682B6883B00193B4B194F8F9
:103C10002030032B06460F460CD100233360019A57
:103C20002B68A7629A420FD1204603B0BDE8F0404E
:103C3000FFF7E6BB0648FFF72BF9EEE7019A2B6882
:103C40009A4201D103B0F0BDFDF7E2FA000800206E
:103C500010DD00080000000000000000000000006F
:103C600030B5104A83B01368019381B10E4B019DAA
:103C70009B69186044685C602360126843609542E9
:103C80000DD1042003B0BDE83040FFF779BC0199A5
:103C9000136899424FF0FF3001D103B030BDFDF7FA
:103CA000B7FA00BF000800208038002000000000A4
:103CB00070B5124D04682B6882B0A042019315D0F4
:103CC00023680360586094F82030042B0E4602D01D
:103CD0000B48FFF7DDF8019A2B68A6629A420BD1D8
:103CE000204602B0BDE87040FFF78ABB019A2B68FE
:103CF0009A4201D102B070BDFDF78AFA0008002097
:103D0000C0DC00080000000000000000000000000F
:103D10002DE9F041DFF850800468D8F8003082B017
:103D2000A042019313D00F4F05460E4623682B6027
:103D30005D6094F82030042B02D03846FFF7A8F8D5
:103D4000A6622046FFF75CFB2C68A542EED1019AE3
:103D5000D8F800309A4202D102B0BDE8F081FDF7F8
:103D600057FA00BFC0DC0008000800200000000077
:103D700030B50B4B83B01A6801924FF0FF320260EE
:103D800001991A680024002300259142C0E90445E6
:103D9000C0E90133C36001D103B030BDFDF738FA8B
:103DA00000080020000000000000000000000000EB
:103DB00000B5084B084A196883B001915168019A0F
:103DC0001B6881609A4202D103B05DF804FBFDF7E5
:103DD0001FFA00BF00080020001000E000000000F3
:103DE000F0B51449144B0A68846883B00192134AF1
:103DF0005B68D2F8A864C2681B1BD0E90445013295
:103E00009B1BC26042688360E61845F1000793423D
:103E1000C0E9046709D80268934238BF0360019A79
:103E20000B689A4203D103B0F0BD4360F7E7FDF79A
:103E3000EFF900BF00080020001000E080380020EB
:103E400030B5114D114C2B6889B04FF0FF310793FD
:103E5000002300226846C4F8A834CDE90133039357
:103E60000023CDE904230091FFF7A2FF6846FFF786
:103E7000B7FF079A2B680299C4F8A8149A4201D197
:103E800009B030BDFDF7C4F90008002080380020DB
:103E90002DE97048134E144B326883B001925B6871
:103EA0008B60D0E902411B1BD0E90445426814EB4A
:103EB000030B45F1000C01319342C0E90231C0E926
:103EC00004BC0AD80268934238BF0360019A336881
:103ED0009A4204D103B0BDE870884360F6E7FDF76D
:103EE00097F900BF00080020001000E0000000006B
:103EF00030B50D4D0D4C2B6883B004F597600193E0
:103F00000023C4F8B034C4F8B434FFF731FF019A89
:103F10002B689A4206D104F59A6003B0BDE83040A0
:103F2000FFF726BFFDF774F9000800208038002055
:103F300000B50949094A0B6883B001930198D2F88A
:103F4000B034096801338842C2F8B03402D103B0FA
:103F50005DF804FBFDF75CF90008002080380020C4
:103F600070B50D4C0D4A236882B00193019DD2F8C3
:103F7000B43424680133A542C2F8B43409D10E46E2
:103F800000F1500106F1500002B0BDE87040FFF7AB
:103F90007FBFFDF73DF900BF0008002080380020FA
:103FA00000B5084B83B01A680192019A1B689A42C7
:103FB00005D1054803B05DF804EBFFF7F9BEFDF746
:103FC00027F900BF00080020383D00200000000055
:103FD00000B5084B83B01A680192019A1B689A4297
:103FE00005D1054803B05DF804EBFFF7F9BEFDF716
:103FF0000FF900BF00080020383D0020000000003D
:1040000000B5084B83B01A680192019A1B689A4266
:1040100005D1054803B05DF804EBFFF7C9BEFDF715
:10402000F7F800BF00080020503D0020000000000D
:1040300000B5084B83B01A680192019A1B689A4236
:1040400005D1054803B05DF804EBFFF7C9BEFDF7E5
:10405000DFF800BF00080020503D002000000000F5
:1040600030B50B4D83B02B680193044650B12460EA
:1040700001992A68646000239142A360236105D1FD
:1040800003B030BD0348FEF703FFF0E7FDF7C0F8CB
:104090000008002050DD00080000000000000000C3
:1040A000F0B55D4E5D4B32689D6983B00446019268
:1040B000FFF786F8002C00F08480A06823690028B0
:1040C00043D0002B40F39780854276D0AA6883685E
:1040D0009A4208D990F820308260062B40D0072BF6
:1040E00073D0002B5DD02746234603E09968AA6869
:1040F000914233D31B689C42F8D12F607B686B6080
:1041000006201D607D60AC62FFF7FAF9A368AB4240
:1041100002D04348FEF7BCFE2B6CA34202D04048BD
:10412000FEF7B6FE2369012B05D1019A33689A4246
:104130006FD103B0F0BD019A33689A4269D1384813
:1041400003B0BDE8F040FEF7A3BE002B58D1013309
:10415000A56023612B6CE3602C64E6E71F46CCE787
:10416000D0E900231A60D0E900325A60876A3B46E2
:1041700003E099688268914247D31B689F42F8D157
:1041800007607B68436018607860836AAA689868F3
:1041900083689342A7D290F820308260062B9ED18C
:1041A000DEE7D0E90023012180F820101A60D0E971
:1041B00000325A60FFF724F995E723690133236140
:1041C000B3E71748FEF764FE77E7D0E900231A60EB
:1041D000D0E900325A60876A3B4603E099688268FA
:1041E000914214D31B689F42F8D107607B684360FB
:1041F0001860786077E70A48FEF74AFEA06863E730
:104200000748FEF745FE2369A1E71F46B8E71F46AA
:10421000EBE7FCF7FDFF00BF00080020803800201E
:1042200060DD000800000000000000000000000049
:1042300030B5154C83B0236801930546202383F3E2
:104240001188FFF7ADFEFEF7C3FE2846FFF728FFF3
:10425000FEF7DEFEFFF7BCFE0C4B1A689A4204D054
:10426000996993688A689A4208D3002383F3118876
:10427000019A23689A4205D103B030BD0448FEF785
:1042800007FEF2E7FCF7C4FF00080020803800209A
:1042900040DD0008000000000000000000000000F9
:1042A0002DE9F043DFF800813C4FD8F80030BE69BB
:1042B00083B005460193002864D0202383F311883E
:1042C000FFF76EFEFEF784FE336C002B5ED09B681A
:1042D000B34202D03248FEF7DBFD2B69002B49DDEB
:1042E000013B2B615BBB336CAB4202D02C48FEF729
:1042F000CFFDEB683364FEF763FF2B689D423ED031
:10430000D6E910495CB1FEF75BFF23689C4203D0FD
:104310009B68994538BF9946E468002CF3D1C6F8EC
:1043200008902B6801222A611A682A605560AB60E8
:104330001A6CEA6018461D640021FFF759F9FEF770
:1043400067FEFFF745FE3B68BB4204D0BA699B6835
:1043500092689A420AD3002383F31188019AD8F80D
:1043600000309A4217D103B0BDE8F0830D48FEF744
:104370008FFDF0E70A48FEF78BFD2B69B0E70023BD
:10438000AB60DCE70648FEF783FD96E70448FEF7DE
:104390007FFD336C9BE7FCF73BFF00BF80380020BC
:1043A00070DD000840DD000800080020000000006B
:1043B0002DE9F041DFF8D880334BD8F800209E6912
:1043C00082B005460192FEF7FBFE002D4FD0336C04
:1043D000002B52D09B68B34202D02C48FEF758FD08
:1043E0002B69002B3EDD013B2B61002B32D1336C5E
:1043F000AB4202D02548FEF74BFDEB683364FEF775
:10440000DFFE2B689D4223D0D6E910475CB1FEF752
:10441000D7FE23689C4203D09B689F4238BF1F464B
:10442000E468002CF3D1B7602868019901232B615F
:1044300003682B60D8F800205D60A860036CEB6017
:10444000914205641ED102B0BDE8F041FEF7D8BF2D
:104450000023AB60019AD8F800309A4212D102B022
:10446000BDE8F0810948FEF713FD2B69BBE707485B
:10447000FEF70EFD336C002BACD10448FEF708FDAF
:10448000336CA7E7FCF7C4FE8038002080DD00080D
:1044900000080020000000000000000000000000F4
:1044A00070B5114E82B0044633680193FEF760FE8A
:1044B0009CB12068A0420AD06FF001050368236018
:1044C0005C60FEF79DFF85622068A042F6D1019AEC
:1044D00033689A4205D102B070BD0448FEF7D8FC9B
:1044E000E7E7FCF795FE00BF00080020A0DD00080C
:1044F0002DE9F0411E4F1F4E3B68B46982B005465E
:104500000193FEF75DFE65B3236C33B3B369D3F853
:1045100040804046FFF74CFF2E46A5622B4603E045
:104520009968A268914216D31B689D42F8D1266013
:104530007368636007201C607460FEF7E1FF40460B
:10454000A46AFFF7ADFD019A3B689A4220460CD160
:1045500002B0BDE8F0811E46E9E70748FEF798FC87
:10456000D4E70548FEF794FCCEE7FCF751FE00BF08
:104570000008002080380020C0DD00080000000096
:1045800030B5164C83B0236801930546202383F38E
:104590001188FFF705FDFEF71BFD2846FFF7A8FF72
:1045A0000546FEF735FDFFF713FD0D4B1A689A42DD
:1045B00004D0996993688A689A4209D3002383F3E7
:1045C0001188019A23689A42284605D103B030BD6C
:1045D0000448FEF75DFCF1E7FCF71AFE0008002036
:1045E0008038002090DD000800000000000000007E
:1045F00070B5184E82B00446336801930D46FEF73D
:10460000B7FD0CB3E16B94F8203029430A2BE1632A
:1046100016D00B2B05D0019A33689A4218D102B0FC
:1046200070BDA36A8B43F6D1019A336800219A4288
:10463000A1620DD1204602B0BDE87040FEF7E0BE99
:10464000A36A1942F0D1E6E70348FEF721FCD9E757
:10465000FCF7DEFD00080020F0DD0008000000008F
:10466000F0B5134F83B006463B6801930D46FEF745
:104670007FFDB6B13468A6420DD0E3682B43E360FA
:1046800015B12269134203D0D4E90101FFF7B0FF4D
:104690002468A642F1D1019A3B689A4205D103B041
:1046A000F0BD0448FEF7F4FBE4E7FCF7B1FD00BF02
:1046B00000080020D0DD000800000000000000001D
:1046C00070B50C4CC16082B0266801960A44006047
:1046D000019E02612268069D4060C0E90511964274
:1046E0004FF00001C3618160056201D102B070BD6D
:1046F000FCF78EFD00080020000000000000000014
:1047000070B5164D82B004462B6801930E46FEF735
:104710002FFDFEF72DFDD4E905239A42A36816D09C
:104720000133511CA36061611670D4E904329A42CE
:104730000AD220460021FFF7BBFA0020019A2B681D
:104740009A4209D102B070BDE3686361F1E7002BC2
:10475000E6D06FF00300F1E7FCF75AFD00080020F7
:10476000F0B5234F83B03B68019304460E462023E7
:1047700083F31188FFF714FCFEF72AFCE36943B1C9
:104780002046984705E031462046FFF769FA051EA6
:1047900010DBFEF7EDFCA368002BF4D0A1692069C3
:1047A0004A1C013B8242A360A26128BFE3680D78E6
:1047B00028BFA361FEF72CFCFFF70AFC0D4B1A681B
:1047C0009A4204D0996993688A689A4209D300236F
:1047D00083F31188019A3B689A42284605D103B0B9
:1047E000F0BD0548FEF754FBF1E7FCF711FD00BFF3
:1047F000000800208038002000DE000800000000D3
:104800002DE9F04FDFF8F490044685B0D9F80000A8
:1048100003908A461D46D4F81C809346002A60D037
:10482000202383F311880193FFF7BAFBFEF7D0FB37
:104830002F4E0027B8F1000F07D02046C04704E0F4
:1048400029462046FFF70CFA60BBFEF791FCA368EF
:10485000002BF5D0A269013B511CA161A360137824
:104860000AF8013B2369A2699A4224BFE368A36165
:10487000FEF7CEFBFFF7ACFB3368B34204D0B2695E
:104880009B6892689A4228D3002383F311880137EA
:10489000BB4519D0019B83F31188FFF781FBFEF71D
:1048A00097FBC7E7FEF7B4FBFFF792FB3368B34211
:1048B00007D0B2699B6892689A4202D20D48FEF70F
:1048C000E7FA002383F31188039AD9F800309A425B
:1048D00038460AD105B0BDE8F08F0648FEF7D8FA91
:1048E000D2E70548FEF7D4FA9AE7FCF791FC00BF3F
:1048F0008038002000DE000810DE000800080020DC
:1049000070B50B4D82602E68C16082B0C0E90000B6
:1049100001960A44019E02612A68069C9642C0E9FB
:104920000511C0E9073401D102B070BDFCF770FC7D
:10493000000800200000000000000000000000004F
:104940002DE9F0412E4F82B03B6801930446884622
:104950001646202383F31188FFF722FBFEF738FB6E
:1049600005E031462046FFF77BF9051E2DDBFEF7FB
:10497000FFFBA368002BF4D06269013B511C61610D
:10498000A36082F80080D4E904329A4224BFE3682D
:104990006361E3690BB120469847FEF739FBFFF7E7
:1049A00017FB184B1A689A4204D0996993688A6871
:1049B0009A421ED3002585F31188019A3B689A42DA
:1049C00028461AD102B0BDE8F081FEF721FBFFF7BF
:1049D000FFFA0C4B1A689A4207D0996993688A6863
:1049E0009A4202D20848FEF753FA002383F3118853
:1049F000E3E70548FEF74CFADCE7FCF709FC00BFEB
:104A0000000800208038002000DE000800000000C0
:104A100070B5154E82B0044633680193FEF7A8FBCB
:104A2000FEF7A6FBD4E905329342A36815D02069AE
:104A3000511C0133A360A161814215780AD220463E
:104A40000021FFF735F92846019A33689A4209D1C7
:104A500002B070BDE368A361F1E7002BE7D06FF00F
:104A60000200F1E7FCF7D4FB000800200000000082
:104A70002DE9F04F04463B48D4F81C90006885B0FF
:104A80000D46039001931646002A61D04FF0200A8C
:104A90008AF31188FFF784FAFEF79AFA4FF00008BC
:104AA000314FC346FEF764FBA368002B32D0626926
:104AB000013B511C6161A3602B781370D4E904326F
:104AC0009A4224BFE36863610135B9F1000F01D058
:104AD0002046C847FEF79CFAFFF77AFA3B68BB42CC
:104AE00007D0BA699B6892689A4202D21F48FEF7C3
:104AF000CFF98BF31188013E08F101081FD08AF32A
:104B00001188FFF74DFAFEF763FAFEF731FBA36851
:104B1000002BCCD101992046FFF7A2F80028C1D084
:104B2000FEF776FAFFF754FA3B68BB4204D0BA6945
:104B30009B6892689A420FD3002383F31188094B34
:104B4000039A1B689A4240460AD105B0BDE8F08F2F
:104B50000748FEF79DF999E70448FEF799F9EBE756
:104B6000FCF756FB000800208038002000DE00081B
:104B700020DE00080000000000000000000000002F
:104B800030B50B490B4A0B680B4D0C4C83B022F02F
:104B90000702019301980A4B09682A6023F0070372
:104BA0008842236001D103B030BDFCF731FB00BF68
:104BB0000008002047480020F43E0020F03E00207E
:104BC00000000220000000000000000000000000C3
:104BD00070B51C4E82B0336801930446202383F3E2
:104BE0001188FFF7DDF9FEF7F3F9FEF7C1FA164A6F
:104BF000164B15681B68E01D20F007005B1B9842F0
:104C00009ABF401910600025FEF702FAFFF7E0F99D
:104C10000F4B1A689A4204D0996993688A689A423D
:104C200009D3002383F31188019A33689A422846F6
:104C300005D102B070BD0748FEF72AF9F1E7FCF78D
:104C4000E7FA00BF00080020F43E0020F03E0020FC
:104C50008038002040DE0008000000000000000056
:104C600000B50B4B0B481A6883B0019201991A6882
:104C7000094B036091424FF00003C0E9023305D1B4
:104C8000103003B05DF804EBFFF7EAB9FCF7C0FAA7
:104C900000080020F83E0020D14B00080000000072
:104CA00080B50D4A0D4982B000AF13687B604B6838
:104CB00023F001034B60EFF30983683383F3098822
:104CC000002383F3118879681368994202D1083769
:104CD000BD4680BDFCF79CFA0008002030EF00E0E4
:104CE000B0B5194C82B000AF23687B60202383F3FA
:104CF0001188164B5B6813F4006308D183F31188A5
:104D00007A6823689A421DD10837BD46B0BDF1EEDE
:104D1000103AEFF309854FF080720D4B45F84C2C9B
:104D2000DB6845F8083CA5F1680383F30988FEF7C2
:104D3000A7FC18B1074B45F8503CE1E7064B45F896
:104D4000503CDDE7FCF764FA0008002000ED00E0CD
:104D500030EF00E0E1020008F4020008000000006B
:104D600010B5184C82B02368019302F0B9F91648C7
:104D700003F0D6FC00F0D4F800F00AF900F050F986
:104D800000F07EF900F0ACF900F0DAF900F008FA72
:104D900000F036FA01F084F800F08AFF01F010F913
:104DA00001F07EFA01F0FCF805F032F9019A23686F
:104DB0009A4204D102B0BDE8104001F059BAFCF7A4
:104DC00027FA00BF0008002050E3000800000000A0
:104DD000F0B51A4D83B02B68019391420E461446EC
:104DE000074619D38B1A1F2B16D806F01F03581C21
:104DF0006209012376098340B24203F1FF3304F0D4
:104E00001F0457F822000BD31840E040019A2B688A
:104E10009A4210D103B0F0BD0948FEF739F8E4E733
:104E200057F82610C4F120020B4020FA04F403FACC
:104E300002F02043EAE7FCF7EBF900BF000800208E
:104E400050DE00080000000000000000000000002C
:104E5000F0B51D4E83B033680193054670B37E22D2
:104E60007F212846FFF7B4FF80B1012806D000203B
:104E7000019A33689A4225D103B0F0BD284630220A
:104E80004521FFF7A5FF01308002F1E73E224921CD
:104E90002846FFF79DFF2F22044631212846FFF7C1
:104EA00097FF5022074653212846FFF791FF013410
:104EB00002370938BC4004FA00F0D9E70348FDF78F
:104EC000E7FFCCE7FCF7A4F90008002070DE00083B
:104ED000F0B5104D83B02B680193044698B194F857
:104EE000D63094F8D770019994F8D4602A6894F871
:104EF000D5001B0403EB07633344914203EB00200E
:104F000005D103B0F0BD0448FDF7C2FFE7E7FCF7A9
:104F10007FF900BF0008002090DE000800000000BC
:104F200000B5074B83B01A680192019A1B689A4238
:104F300004D103B05DF804EB02F092B9FCF768F914
:104F40000008002000000000000000000000000039
:104F500000B50C4B83B01A680192012202700199CE
:104F60001A6800239142C0E90133C0E90333436169
:104F700005D1183003B05DF804EBFFF771B8FCF70A
:104F800047F900BF000800200000000000000000FA
:104F900000B5074B83B01A680192019A1B689A42C8
:104FA00004D103B05DF804EB02F002BFFCF730F966
:104FB00000080020000000000000000000000000C9
:104FC00030B5134B83B01A68019201220270019C24
:104FD0001968002200F1180300F11C05426083618A
:104FE00000F1200200F12403C561026200F12805EE
:104FF00000F1080243628C4200F110038562C0E9AF
:105000000222C0E9043301D103B030BDFCF700F93E
:105010000008002000000000000000000000000068
:1050200000B5074B83B01A680192019A1B689A4237
:1050300004D103B05DF804EB03F052BBFCF7E8F8D1
:105040000008002000000000000000000000000038
:1050500000B50A4B83B01A680192012202700199CF
:105060001A6800239142C0E9043305D1183003B017
:105070005DF804EBFEF7F4BFFCF7CAF80008002067
:1050800000B5074B83B01A680192019A1B689A42D7
:1050900004D103B05DF804EB02F0AABEFCF7B8F847
:1050A00000080020000000000000000000000000D8
:1050B00000B5084B83B01A68019201220270019A70
:1050C0001B6800219A42416002D103B05DF804FBE5
:1050D000FCF79EF80008002000000000000000001F
:1050E00000B5074B83B01A680192019A1B689A4277
:1050F00004D103B05DF804EB04F062BBFCF788F860
:105100000008002000000000000000000000000077
:1051100000B5084B83B01A68019201220270019A0F
:105120001B6800219A42416002D103B05DF804FB84
:10513000FCF76EF8000800200000000000000000EE
:1051400000B5074B83B01A680192019A1B689A4216
:1051500004D103B05DF804EB03F0FABCFCF758F897
:105160000008002000000000000000000000000017
:1051700000B50A4B83B01A68019201220270019AAD
:105180001B6800219A42416005D10C3003B05DF8E4
:1051900004EBFEF765BFFCF73BF800BF00080020FA
:1051A00000B5074B83B01A680192019A1B689A42B6
:1051B00004D103B05DF804EB04F0D2B8FCF728F892
:1051C00000080020000000000000000000000000B7
:1051D00000B5084B83B01A68019201220270019A4F
:1051E0001B6800219A42416002D103B05DF804FBC4
:1051F000FCF70EF80008002000000000000000008E
:1052000000B5074B83B01A680192019A1B689A4255
:1052100004D103B05DF804EB04F0C2BBFBF7F8FF68
:105220000008002000000000000000000000000056
:1052300000B5094B83B01A680192012202700199EE
:105240001A68002391424360C360037402D103B023
:105250005DF804FBFBF7DCFF000800200000000005
:1052600070B5214E82B0336801930D460446002884
:1052700033D0002931D0202383F31188FEF790FE2C
:10528000FDF7A6FE2378013B012B02D91748FDF755
:10529000FFFD65606B68A360204604F0C1FB00223F
:1052A0000223E2602370FDF7B3FEFEF791FE104B80
:1052B0001A689A4204D0996993688A689A4208D316
:1052C000002383F31188019A33689A4209D102B00E
:1052D00070BD0848FDF7DCFDF2E70448FDF7D8FD96
:1052E000C9E7FBF795FF00BF00080020C0DE0008FB
:1052F00080380020B0DE0008000000000000000040
:1053000070B51C4E82B0336801930C46054650B30D
:10531000202383F31188FEF743FEFDF759FE2B7817
:10532000022B02D01448FDF7B3FDAB69AC60013C21
:10533000DC62FDF76DFEFEF74BFE104B1A689A42D9
:1053400004D0996993688A689A4208D3002383F34A
:105350001188019A33689A4209D102B070BD084899
:10536000FDF796FDF2E70448FDF792FDD0E7FBF765
:105370004FFF00BF00080020D0DE0008803800206A
:10538000B0DE000800000000000000000000000087
:10539000F0B5214E83B0336801930D46174604469D
:1053A00078B3037C8B422CD9202383F31188FEF73A
:1053B000F7FDFDF70DFE2378022B02D01748FDF70D
:1053C00067FDE3680122AA401343E3603A46294699
:1053D000204604F00DFCFDF71BFEFEF7F9FD104B17
:1053E0001A689A4204D0996993688A689A420CD3E1
:1053F000002383F31188019A33689A4209D103B0DC
:10540000F0BD0648FDF744FDCEE70648FDF740FD38
:10541000EEE7FBF7FDFE00BF00080020E0DE00081D
:1054200080380020B0DE000800000000000000000E
:1054300070B5204E82B0336801930D46044678B3B0
:10544000037C8B422CD9202383F31188FEF7A8FD1F
:10545000FDF7BEFD2378022B02D01748FDF718FD9B
:10546000E3680122AA4023EA0203E36029462046BA
:1054700004F0D6FBFDF7CCFDFEF7AAFD0F4B1A6832
:105480009A4204D0996993688A689A420CD300239F
:1054900083F31188019A33689A4209D102B070BD32
:1054A0000548FDF7F5FCCEE70548FDF7F1FCEEE712
:1054B000FBF7AEFE0008002000DF00088038002067
:1054C000B0DE000800000000000000000000000046
:1054D00030B51E4D83B02B680193044680B3202362
:1054E00083F31188FEF75CFDFDF772FD2378022B34
:1054F00002D01748FDF7CCFC63689B68E3B12046F7
:1055000004F0AEFBFDF784FDFEF762FD114B1A6857
:105510009A4204D0996993688A689A4208D3002312
:1055200083F31188019A2B689A420DD103B030BDE4
:105530000948FDF7ADFCF2E70548FDF7A9FCDEE7F9
:105540000348FDF7A5FCCAE7FBF762FE0008002050
:1055500020DF000880380020B0DE000800000000D6
:1055600070B5294E82B0336801930D460446002879
:1055700032D0037C8B422FD9202383F31188FEF78E
:105580000FFDFDF725FD2378022B02D01F48FDF704
:105590007FFCE368EB40DB0726D5636803EBC503BC
:1055A0001B6953B32946204604F07AFBFDF730FD12
:1055B000FEF70EFD164B1A689A4204D0996993685B
:1055C0008A689A420CD3002383F31188019A3368C6
:1055D0009A4216D102B070BD0C48FDF759FCCBE7DA
:1055E0000C48FDF755FCEEE70848FDF751FC6368F1
:1055F00003EBC5031B69002BD4D10448FDF748FC1D
:10560000D0E7FBF705FE00BF0008002040DF0008E0
:1056100080380020B0DE000800000000000000001C
:1056200070B5104D82B02B6801930E46044650B100
:1056300049B12379052B0CD00120019A2B689A429D
:105640000ED102B070BD0848FDF722FC2379052B6E
:10565000F2D1A36A73604FF4007333600020ECE76B
:10566000FBF7D6FD00080020D0DF00080000000096
:105670002DE9F047DFF89C8386B002AFD8F8003000
:10568000FB600446002800F019812379022B01D029
:10569000052B2BD103232371204602F041FC00226D
:1056A0001146204602F0B4FC07F108034FF4D5720E
:1056B0000821204602F0F4FCE0B9BB680122C3F3E4
:1056C00003239342226300F0FD80204602F060FC39
:1056D000022323710125FA68D8F800309A4228463F
:1056E00040F046811037BD46BDE8F087C048FDF761
:1056F000CFFBCFE707F1080300223721204602F055
:10570000CFFC002840F0BE80BB68BA4A1A40002A8D
:1057100040F0B88022631146204602F079FC266BE7
:1057200006F00F03022B00F0AF80B34EB34ADFF850
:10573000C492012B18BF1646642504E0013DC4D075
:105740000A20FEF755F907F1080300223721204609
:1057500002F0A6FC0028B8D1BB6813EA090FB4D147
:1057600007F1080332462921204602F071FC002887
:10577000ABD1BB68002BE1DA5B0003D5236B43F0B0
:105780001003236304F1080300220221204602F0E3
:105790007FFD002899D1024604F1380303212046F9
:1057A00002F07EFC002890D104F118052B46A26B74
:1057B0000921204602F06CFD002886D13B1DA26B1A
:1057C0000721204602F06CFC824600287FF47DAF62
:1057D000236B03F00F03022B00F097806E467E22AE
:1057E00090B07F212846FFF7F3FA0DF10809002851
:1057F00079D10146B546204602F0B2FB236B03F097
:105800000F03022B00F096802846FFF721FBA062D1
:105810003B1D4FF400721021204602F041FC05466A
:1058200000287FF452AF7B68724E33427FF44DAF55
:10583000236B03F00F03012B40F2B280022B7FF4A5
:1058400044AFE36A1A79012A00F0A88017D3022A2C
:1058500040F0E2806A4E1979204602F0B1FB07F170
:10586000080332460621204602F01AFC00287FF485
:105870002CAFBA685F4B1340002B7FF426AF052393
:10588000237128E7022323635E4E642505E0013D72
:105890003FF41BAF0A20FEF7ABF807F108033246CE
:1058A0000121204602F0D4FB00287FF40EAFBB6834
:1058B000002BECDA5B007FF565AF5FE74C48FDF746
:1058C000E7FAE2E6024607F108033721204602F034
:1058D000E7FB00287FF4F9AEBA68464B1340002B73
:1058E0007FF4F3AE1BE7CDF800A006234022494623
:1058F000204602F0FDFC00284ED199F80D3013F03F
:10590000020337D11946B54675E7E36A1B687BB1D8
:1059100007F108033C4A0621204602F0C1FB38B9D2
:10592000BB6834491940B1FA81F1490963E7B546CA
:10593000002160E77E227F212846FFF749FA0128EF
:105940007FF662AFE36A1D68002D3FF4BEAE002310
:1059500000934FF4007208232946204602F0C8FC49
:1059600000287FF4B2AE2846FFF7B2FAA0624FE7F4
:10597000FBF74EFC254B0093402206234946204668
:1059800002F0B6FC40B999F8103003F00F030F2B6A
:10599000CDD0B54601212EE7B54696E61C4E5AE716
:1059A000E36A197900293FF46AAF01297FF48DAECB
:1059B000204602F005FB07F10803A26B37212046C1
:1059C00002F06EFB00287FF480AEBB6833427FF4A8
:1059D0007CAE07F1080302220621204602F060FB9C
:1059E00000287FF472AEBB6833423FF448AF6CE6E8
:1059F00080DF000808E0FFFD000010C000001080FC
:105A00000002B7030080FFC00001B903F1FFFF806F
:105A10000001B703000800200248034EFDF738FAE2
:105A2000E36A18E760DF00080000B7030000000029
:105A30002DE9F041194D82B02C6801940F46904633
:105A40001E460446C0B1BAB1B3B12379052B02D0CA
:105A50001348FDF71DFA781EA36A304498420FD907
:105A6000636B43F0800363630120019A2B689A42C1
:105A700011D102B0BDE8F0810948FDF709FAE4E769
:105A800006203346207142463946204602F090FDFA
:105A900005232371E9E7FBF7BBFB00BF00080020EB
:105AA000A0DF00080000000000000000000000006F
:105AB0002DE9F041194D82B02C6801940F469046B3
:105AC0001E460446C0B1BAB1B3B12379052B02D04A
:105AD0001348FDF7DDF9781EA36A304498420FD9C8
